:020000040000FA
:060000000A128A11FC2F18
:100D1600700C83120313031C08130318081708002A
:100D2600700C83120313031C88120318881608001C
:100D3600700C83120313031C88110318881508000E
:100D4600700C83120313031C8813031888170800FA
:100D5600700C83120313031C0811031808150800EE
:100D660083120313080C0139F200F3017208F00034
:100D76007308F100BE2E08008316031388130813A8
:100D86008812881108118814831203138812081315
:100D960088130800F401F501D52FD52F0130F40092
:100DA6000030F500D52F0A128A11BF260A128A11C1
:100DB6000230F4000030F500D52F0030F000F100CD
:100DC6000A128A118B260A128A110030F000F100ED
:100DD6000A128A11A3260A128A110130F000003085
:100DE600F1000A128A1193260A128A110030F000C5
:100DF600F1000A128A119B260A128A110130F000AC
:100E06000030F1000A128A11AB260A128A110A1260
:100E16008A11B3260A128A1170037104031D142F56
:100E2600152FD52F0330F4000030F500D52FD52F20
:100E3600B830F6000B30F7000430F4000030F5004F
:100E4600D52F0000FF30F6070318F70AFF30F70723
:100E56007708803AFF0080307F02031D342F01306F
:100E660076020318372F382FD52F0530F4000030BF
:100E7600F500D52FD52F0030F000F1000A128A11A7
:100E860093260A128A110030F000F1000A128A1124
:100E9600A3260A128A110030F000F1000A128A1104
:100EA6009B260A128A110130F0000030F1000A1266
:100EB6008A118B260A128A110130F0000030F100E7
:100EC6000A128A11AB260A128A11D030F6000730B0
:100ED600F7000630F4000030F500D52F0000FF3093
:100EE600F6070318F70AFF30F7077708803AFF007E
:100EF60080307F02031D812F013076020318842F74
:100F0600852FD52F0730F4000030F500D52FD52FCB
:100F16000030F000F1000A128A1193260A128A1193
:100F26000030F000F1000A128A118B260A128A118B
:100F36000030F000F1000A128A11AB260A128A115B
:100F46000130F0000030F1000A128A11A3260A12BD
:100F56008A110130F0000030F1000A128A119B2636
:100F66000A128A11A030F6000F30F700D52F0000C4
:100F7600FF30F6070318F70AFF30F7077708803ABD
:100F8600FF0080307F02031DCA2F0130760203184E
:100F9600CD2FCE2FD52F0230F4000030F500D52FFF
:100FA600D52FD52F7508003A0319DA2FD52F7408D7
:100FB600003A0319D12E013A0319D62E033A031922
:100FC600E02E013A03191B2F073A0319242F013A81
:100FD60003193E2F033A0319712F013A03198B2F78
:100FE6000F3A0319BA2FD52FD52FD52F0A128A11EA
:0A0FF600002883010A128A11CD2E93
:04400E00D4E0FFFFFC
:00000001FF
